{
  "_format": "hh-sol-artifact-1",
  "contractName": "NFT",
  "sourceName": "contracts/NFT.sol",
  "abi": [
    {
      "inputs": [
        {
          "internalType": "address",
          "name": "marketAddress",
          "type": "address"
        }
      ],
      "stateMutability": "nonpayable",
      "type": "constructor"
    },
    {
      "anonymous": false,
      "inputs": [
        {
          "indexed": true,
          "internalType": "address",
          "name": "owner",
          "type": "address"
        },
        {
          "indexed": true,
          "internalType": "address",
          "name": "approved",
          "type": "address"
        },
        {
          "indexed": true,
          "internalType": "uint256",
          "name": "tokenId",
          "type": "uint256"
        }
      ],
      "name": "Approval",
      "type": "event"
    },
    {
      "anonymous": false,
      "inputs": [
        {
          "indexed": true,
          "internalType": "address",
          "name": "owner",
          "type": "address"
        },
        {
          "indexed": true,
          "internalType": "address",
          "name": "operator",
          "type": "address"
        },
        {
          "indexed": false,
          "internalType": "bool",
          "name": "approved",
          "type": "bool"
        }
      ],
      "name": "ApprovalForAll",
      "type": "event"
    },
    {
      "anonymous": false,
      "inputs": [
        {
          "indexed": true,
          "internalType": "address",
          "name": "from",
          "type": "address"
        },
        {
          "indexed": true,
          "internalType": "address",
          "name": "to",
          "type": "address"
        },
        {
          "indexed": true,
          "internalType": "uint256",
          "name": "tokenId",
          "type": "uint256"
        }
      ],
      "name": "Transfer",
      "type": "event"
    },
    {
      "inputs": [],
      "name": "_tokenIds",
      "outputs": [
        {
          "internalType": "uint256",
          "name": "_value",
          "type": "uint256"
        }
      ],
      "stateMutability": "view",
      "type": "function"
    },
    {
      "inputs": [
        {
          "internalType": "address",
          "name": "to",
          "type": "address"
        },
        {
          "internalType": "uint256",
          "name": "tokenId",
          "type": "uint256"
        }
      ],
      "name": "approve",
      "outputs": [],
      "stateMutability": "nonpayable",
      "type": "function"
    },
    {
      "inputs": [
        {
          "internalType": "address",
          "name": "owner",
          "type": "address"
        }
      ],
      "name": "balanceOf",
      "outputs": [
        {
          "internalType": "uint256",
          "name": "",
          "type": "uint256"
        }
      ],
      "stateMutability": "view",
      "type": "function"
    },
    {
      "inputs": [
        {
          "internalType": "uint256",
          "name": "_tokenId",
          "type": "uint256"
        }
      ],
      "name": "burn",
      "outputs": [],
      "stateMutability": "nonpayable",
      "type": "function"
    },
    {
      "inputs": [
        {
          "internalType": "uint256",
          "name": "tokenId",
          "type": "uint256"
        }
      ],
      "name": "getApproved",
      "outputs": [
        {
          "internalType": "address",
          "name": "",
          "type": "address"
        }
      ],
      "stateMutability": "view",
      "type": "function"
    },
    {
      "inputs": [],
      "name": "giveMarketApproval",
      "outputs": [],
      "stateMutability": "nonpayable",
      "type": "function"
    },
    {
      "inputs": [
        {
          "internalType": "address",
          "name": "owner",
          "type": "address"
        },
        {
          "internalType": "address",
          "name": "operator",
          "type": "address"
        }
      ],
      "name": "isApprovedForAll",
      "outputs": [
        {
          "internalType": "bool",
          "name": "",
          "type": "bool"
        }
      ],
      "stateMutability": "view",
      "type": "function"
    },
    {
      "inputs": [],
      "name": "market",
      "outputs": [
        {
          "internalType": "address",
          "name": "",
          "type": "address"
        }
      ],
      "stateMutability": "view",
      "type": "function"
    },
    {
      "inputs": [
        {
          "internalType": "string",
          "name": "_tokenURI",
          "type": "string"
        },
        {
          "internalType": "uint256",
          "name": "royalty",
          "type": "uint256"
        }
      ],
      "name": "mint",
      "outputs": [
        {
          "internalType": "uint256",
          "name": "",
          "type": "uint256"
        }
      ],
      "stateMutability": "nonpayable",
      "type": "function"
    },
    {
      "inputs": [],
      "name": "name",
      "outputs": [
        {
          "internalType": "string",
          "name": "",
          "type": "string"
        }
      ],
      "stateMutability": "view",
      "type": "function"
    },
    {
      "inputs": [
        {
          "internalType": "uint256",
          "name": "tokenId",
          "type": "uint256"
        }
      ],
      "name": "ownerOf",
      "outputs": [
        {
          "internalType": "address",
          "name": "",
          "type": "address"
        }
      ],
      "stateMutability": "view",
      "type": "function"
    },
    {
      "inputs": [
        {
          "internalType": "uint256",
          "name": "_tokenId",
          "type": "uint256"
        },
        {
          "internalType": "uint256",
          "name": "_salePrice",
          "type": "uint256"
        }
      ],
      "name": "royaltyInfo",
      "outputs": [
        {
          "internalType": "address",
          "name": "receiver",
          "type": "address"
        },
        {
          "internalType": "uint256",
          "name": "royaltyAmount",
          "type": "uint256"
        }
      ],
      "stateMutability": "view",
      "type": "function"
    },
    {
      "inputs": [
        {
          "internalType": "address",
          "name": "from",
          "type": "address"
        },
        {
          "internalType": "address",
          "name": "to",
          "type": "address"
        },
        {
          "internalType": "uint256",
          "name": "tokenId",
          "type": "uint256"
        }
      ],
      "name": "safeTransferFrom",
      "outputs": [],
      "stateMutability": "nonpayable",
      "type": "function"
    },
    {
      "inputs": [
        {
          "internalType": "address",
          "name": "from",
          "type": "address"
        },
        {
          "internalType": "address",
          "name": "to",
          "type": "address"
        },
        {
          "internalType": "uint256",
          "name": "tokenId",
          "type": "uint256"
        },
        {
          "internalType": "bytes",
          "name": "_data",
          "type": "bytes"
        }
      ],
      "name": "safeTransferFrom",
      "outputs": [],
      "stateMutability": "nonpayable",
      "type": "function"
    },
    {
      "inputs": [
        {
          "internalType": "address",
          "name": "operator",
          "type": "address"
        },
        {
          "internalType": "bool",
          "name": "approved",
          "type": "bool"
        }
      ],
      "name": "setApprovalForAll",
      "outputs": [],
      "stateMutability": "nonpayable",
      "type": "function"
    },
    {
      "inputs": [
        {
          "internalType": "bytes4",
          "name": "interfaceId",
          "type": "bytes4"
        }
      ],
      "name": "supportsInterface",
      "outputs": [
        {
          "internalType": "bool",
          "name": "",
          "type": "bool"
        }
      ],
      "stateMutability": "view",
      "type": "function"
    },
    {
      "inputs": [],
      "name": "symbol",
      "outputs": [
        {
          "internalType": "string",
          "name": "",
          "type": "string"
        }
      ],
      "stateMutability": "view",
      "type": "function"
    },
    {
      "inputs": [
        {
          "internalType": "uint256",
          "name": "tokenId",
          "type": "uint256"
        }
      ],
      "name": "tokenURI",
      "outputs": [
        {
          "internalType": "string",
          "name": "",
          "type": "string"
        }
      ],
      "stateMutability": "view",
      "type": "function"
    },
    {
      "inputs": [
        {
          "internalType": "address",
          "name": "from",
          "type": "address"
        },
        {
          "internalType": "address",
          "name": "to",
          "type": "address"
        },
        {
          "internalType": "uint256",
          "name": "tokenId",
          "type": "uint256"
        }
      ],
      "name": "transferFrom",
      "outputs": [],
      "stateMutability": "nonpayable",
      "type": "function"
    }
  ],
  "bytecode": "0x60806040523480156200001157600080fd5b50604051620033fe380380620033fe8339818101604052810190620000379190620001e6565b6040518060400160405280600981526020017f41727420546f6b656e00000000000000000000000000000000000000000000008152506040518060400160405280600381526020017f41525400000000000000000000000000000000000000000000000000000000008152508160009080519060200190620000bb9291906200011f565b508060019080519060200190620000d49291906200011f565b50505080600860006101000a81548173ffffffffffffffffffffffffffffffffffffffff021916908373ffffffffffffffffffffffffffffffffffffffff16021790555050620002c5565b8280546200012d9062000246565b90600052602060002090601f0160209004810192826200015157600085556200019d565b82601f106200016c57805160ff19168380011785556200019d565b828001600101855582156200019d579182015b828111156200019c5782518255916020019190600101906200017f565b5b509050620001ac9190620001b0565b5090565b5b80821115620001cb576000816000905550600101620001b1565b5090565b600081519050620001e081620002ab565b92915050565b600060208284031215620001f957600080fd5b60006200020984828501620001cf565b91505092915050565b60006200021f8262000226565b9050919050565b600073ffffffffffffffffffffffffffffffffffffffff82169050919050565b600060028204905060018216806200025f57607f821691505b602082108114156200027657620002756200027c565b5b50919050565b7f4e487b7100000000000000000000000000000000000000000000000000000000600052602260045260246000fd5b620002b68162000212565b8114620002c257600080fd5b50565b61312980620002d56000396000f3fe608060405234801561001057600080fd5b50600436106101215760003560e01c806342966c68116100ad578063a22cb46511610071578063a22cb4651461031b578063aa46a40014610337578063b88d4fde14610355578063c87b56dd14610371578063e985e9c5146103a157610121565b806342966c68146102635780636352211e1461027f57806370a08231146102af57806380f55605146102df57806395d89b41146102fd57610121565b8063081812fc116100f4578063081812fc146101ae578063095ea7b3146101de57806323b872dd146101fa5780632a55205a1461021657806342842e0e1461024757610121565b806301ffc9a71461012657806302204d6b14610156578063056b01ce1461016057806306fdde0314610190575b600080fd5b610140600480360381019061013b91906120c3565b6103d1565b60405161014d9190612582565b60405180910390f35b61015e6104b3565b005b61017a60048036038101906101759190612115565b6104e2565b60405161018791906127bf565b60405180910390f35b6101986105f2565b6040516101a5919061259d565b60405180910390f35b6101c860048036038101906101c39190612169565b610684565b6040516101d591906124f2565b60405180910390f35b6101f860048036038101906101f39190612087565b610709565b005b610214600480360381019061020f9190611f81565b610821565b005b610230600480360381019061022b9190612192565b610881565b60405161023e929190612559565b60405180910390f35b610261600480360381019061025c9190611f81565b610980565b005b61027d60048036038101906102789190612169565b6109a0565b005b61029960048036038101906102949190612169565b6109f8565b6040516102a691906124f2565b60405180910390f35b6102c960048036038101906102c49190611f1c565b610aaa565b6040516102d691906127bf565b60405180910390f35b6102e7610b62565b6040516102f491906124f2565b60405180910390f35b610305610b88565b604051610312919061259d565b60405180910390f35b6103356004803603810190610330919061204b565b610c1a565b005b61033f610d9b565b60405161034c91906127bf565b60405180910390f35b61036f600480360381019061036a9190611fd0565b610da7565b005b61038b60048036038101906103869190612169565b610e09565b604051610398919061259d565b60405180910390f35b6103bb60048036038101906103b69190611f45565b610f5b565b6040516103c89190612582565b60405180910390f35b60007f80ac58cd000000000000000000000000000000000000000000000000000000007bffffffffffffffffffffffffffffffffffffffffffffffffffffffff1916827bffffffffffffffffffffffffffffffffffffffffffffffffffffffff1916148061049c57507f5b5e139f000000000000000000000000000000000000000000000000000000007bffffffffffffffffffffffffffffffffffffffffffffffffffffffff1916827bffffffffffffffffffffffffffffffffffffffffffffffffffffffff1916145b806104ac57506104ab82610fef565b5b9050919050565b6104e0600860009054906101000a900473ffffffffffffffffffffffffffffffffffffffff166001610c1a565b565b60008082101580156104f45750606482105b6104fd57600080fd5b6105076007611059565b6000610513600761106f565b905060405180604001604052803373ffffffffffffffffffffffffffffffffffffffff168152602001848152506009600083815260200190815260200160002060008201518160000160006101000a81548173ffffffffffffffffffffffffffffffffffffffff021916908373ffffffffffffffffffffffffffffffffffffffff160217905550602082015181600101559050506105b1338261107d565b6105bb818561124b565b6105e8600860009054906101000a900473ffffffffffffffffffffffffffffffffffffffff166001610c1a565b8091505092915050565b60606000805461060190612a6f565b80601f016020809104026020016040519081016040528092919081815260200182805461062d90612a6f565b801561067a5780601f1061064f5761010080835404028352916020019161067a565b820191906000526020600020905b81548152906001019060200180831161065d57829003601f168201915b5050505050905090565b600061068f826112bf565b6106ce576040517f08c379a00000000000000000000000000000000000000000000000000000000081526004016106c59061271f565b60405180910390fd5b6004600083815260200190815260200160002060009054906101000a900473ffffffffffffffffffffffffffffffffffffffff169050919050565b6000610714826109f8565b90508073ffffffffffffffffffffffffffffffffffffffff168373ffffffffffffffffffffffffffffffffffffffff161415610785576040517f08c379a000000000000000000000000000000000000000000000000000000000815260040161077c9061277f565b60405180910390fd5b8073ffffffffffffffffffffffffffffffffffffffff166107a461132b565b73ffffffffffffffffffffffffffffffffffffffff1614806107d357506107d2816107cd61132b565b610f5b565b5b610812576040517f08c379a00000000000000000000000000000000000000000000000000000000081526004016108099061265f565b60405180910390fd5b61081c8383611333565b505050565b61083261082c61132b565b826113ec565b610871576040517f08c379a00000000000000000000000000000000000000000000000000000000081526004016108689061279f565b60405180910390fd5b61087c8383836114ca565b505050565b6000806000600960008681526020019081526020016000206040518060400160405290816000820160009054906101000a900473ffffffffffffffffffffffffffffffffffffffff1673ffffffffffffffffffffffffffffffffffffffff1673ffffffffffffffffffffffffffffffffffffffff1681526020016001820154815250509050600073ffffffffffffffffffffffffffffffffffffffff16816000015173ffffffffffffffffffffffffffffffffffffffff16141561094c576000809250925050610979565b60006064826020015186610960919061292b565b61096a91906128fa565b90508160000151819350935050505b9250929050565b61099b83838360405180602001604052806000815250610da7565b505050565b60006109ab826109f8565b905060003390508073ffffffffffffffffffffffffffffffffffffffff168273ffffffffffffffffffffffffffffffffffffffff16146109ea57600080fd5b6109f383611726565b505050565b6000806002600084815260200190815260200160002060009054906101000a900473ffffffffffffffffffffffffffffffffffffffff169050600073ffffffffffffffffffffffffffffffffffffffff168173ffffffffffffffffffffffffffffffffffffffff161415610aa1576040517f08c379a0000000000000000000000000000000000000000000000000000000008152600401610a989061269f565b60405180910390fd5b80915050919050565b60008073ffffffffffffffffffffffffffffffffffffffff168273ffffffffffffffffffffffffffffffffffffffff161415610b1b576040517f08c379a0000000000000000000000000000000000000000000000000000000008152600401610b129061267f565b60405180910390fd5b600360008373ffffffffffffffffffffffffffffffffffffffff1673ffffffffffffffffffffffffffffffffffffffff168152602001908152602001600020549050919050565b600860009054906101000a900473ffffffffffffffffffffffffffffffffffffffff1681565b606060018054610b9790612a6f565b80601f0160208091040260200160405190810160405280929190818152602001828054610bc390612a6f565b8015610c105780601f10610be557610100808354040283529160200191610c10565b820191906000526020600020905b815481529060010190602001808311610bf357829003601f168201915b5050505050905090565b610c2261132b565b73ffffffffffffffffffffffffffffffffffffffff168273ffffffffffffffffffffffffffffffffffffffff161415610c90576040517f08c379a0000000000000000000000000000000000000000000000000000000008152600401610c879061261f565b60405180910390fd5b8060056000610c9d61132b565b73ffffffffffffffffffffffffffffffffffffffff1673ffffffffffffffffffffffffffffffffffffffff16815260200190815260200160002060008473ffffffffffffffffffffffffffffffffffffffff1673ffffffffffffffffffffffffffffffffffffffff16815260200190815260200160002060006101000a81548160ff0219169083151502179055508173ffffffffffffffffffffffffffffffffffffffff16610d4a61132b565b73ffffffffffffffffffffffffffffffffffffffff167f17307eab39ab6107e8899845ad3d59bd9653f200f220920489ca2b5937696c3183604051610d8f9190612582565b60405180910390a35050565b60078060000154905081565b610db8610db261132b565b836113ec565b610df7576040517f08c379a0000000000000000000000000000000000000000000000000000000008152600401610dee9061279f565b60405180910390fd5b610e0384848484611779565b50505050565b6060610e14826112bf565b610e53576040517f08c379a0000000000000000000000000000000000000000000000000000000008152600401610e4a906126ff565b60405180910390fd5b6000600660008481526020019081526020016000208054610e7390612a6f565b80601f0160208091040260200160405190810160405280929190818152602001828054610e9f90612a6f565b8015610eec5780601f10610ec157610100808354040283529160200191610eec565b820191906000526020600020905b815481529060010190602001808311610ecf57829003601f168201915b505050505090506000610efd6117d5565b9050600081511415610f13578192505050610f56565b600082511115610f48578082604051602001610f309291906124ce565b60405160208183030381529060405292505050610f56565b610f51846117ec565b925050505b919050565b6000600560008473ffffffffffffffffffffffffffffffffffffffff1673ffffffffffffffffffffffffffffffffffffffff16815260200190815260200160002060008373ffffffffffffffffffffffffffffffffffffffff1673ffffffffffffffffffffffffffffffffffffffff16815260200190815260200160002060009054906101000a900460ff16905092915050565b60007f01ffc9a7000000000000000000000000000000000000000000000000000000007bffffffffffffffffffffffffffffffffffffffffffffffffffffffff1916827bffffffffffffffffffffffffffffffffffffffffffffffffffffffff1916149050919050565b6001816000016000828254019250508190555050565b600081600001549050919050565b600073ffffffffffffffffffffffffffffffffffffffff168273ffffffffffffffffffffffffffffffffffffffff1614156110ed576040517f08c379a00000000000000000000000000000000000000000000000000000000081526004016110e4906126df565b60405180910390fd5b6110f6816112bf565b15611136576040517f08c379a000000000000000000000000000000000000000000000000000000000815260040161112d906125df565b60405180910390fd5b61114260008383611893565b6001600360008473ffffffffffffffffffffffffffffffffffffffff1673ffffffffffffffffffffffffffffffffffffffff168152602001908152602001600020600082825461119291906128a4565b92505081905550816002600083815260200190815260200160002060006101000a81548173ffffffffffffffffffffffffffffffffffffffff021916908373ffffffffffffffffffffffffffffffffffffffff160217905550808273ffffffffffffffffffffffffffffffffffffffff16600073ffffffffffffffffffffffffffffffffffffffff167fddf252ad1be2c89b69c2b068fc378daa952ba7f163c4a11628f55a4df523b3ef60405160405180910390a45050565b611254826112bf565b611293576040517f08c379a000000000000000000000000000000000000000000000000000000000815260040161128a906126bf565b60405180910390fd5b806006600084815260200190815260200160002090805190602001906112ba929190611d00565b505050565b60008073ffffffffffffffffffffffffffffffffffffffff166002600084815260200190815260200160002060009054906101000a900473ffffffffffffffffffffffffffffffffffffffff1673ffffffffffffffffffffffffffffffffffffffff1614159050919050565b600033905090565b816004600083815260200190815260200160002060006101000a81548173ffffffffffffffffffffffffffffffffffffffff021916908373ffffffffffffffffffffffffffffffffffffffff160217905550808273ffffffffffffffffffffffffffffffffffffffff166113a6836109f8565b73ffffffffffffffffffffffffffffffffffffffff167f8c5be1e5ebec7d5bd14f71427d1e84f3dd0314c0f7b2291e5b200ac8c7c3b92560405160405180910390a45050565b60006113f7826112bf565b611436576040517f08c379a000000000000000000000000000000000000000000000000000000000815260040161142d9061263f565b60405180910390fd5b6000611441836109f8565b90508073ffffffffffffffffffffffffffffffffffffffff168473ffffffffffffffffffffffffffffffffffffffff1614806114b057508373ffffffffffffffffffffffffffffffffffffffff1661149884610684565b73ffffffffffffffffffffffffffffffffffffffff16145b806114c157506114c08185610f5b565b5b91505092915050565b8273ffffffffffffffffffffffffffffffffffffffff166114ea826109f8565b73ffffffffffffffffffffffffffffffffffffffff1614611540576040517f08c379a00000000000000000000000000000000000000000000000000000000081526004016115379061273f565b60405180910390fd5b600073ffffffffffffffffffffffffffffffffffffffff168273ffffffffffffffffffffffffffffffffffffffff1614156115b0576040517f08c379a00000000000000000000000000000000000000000000000000000000081526004016115a7906125ff565b60405180910390fd5b6115bb838383611893565b6115c6600082611333565b6001600360008573ffffffffffffffffffffffffffffffffffffffff1673ffffffffffffffffffffffffffffffffffffffff16815260200190815260200160002060008282546116169190612985565b925050819055506001600360008473ffffffffffffffffffffffffffffffffffffffff1673ffffffffffffffffffffffffffffffffffffffff168152602001908152602001600020600082825461166d91906128a4565b92505081905550816002600083815260200190815260200160002060006101000a81548173ffffffffffffffffffffffffffffffffffffffff021916908373ffffffffffffffffffffffffffffffffffffffff160217905550808273ffffffffffffffffffffffffffffffffffffffff168473ffffffffffffffffffffffffffffffffffffffff167fddf252ad1be2c89b69c2b068fc378daa952ba7f163c4a11628f55a4df523b3ef60405160405180910390a4505050565b61172f81611898565b600060066000838152602001908152602001600020805461174f90612a6f565b905014611776576006600082815260200190815260200160002060006117759190611d86565b5b50565b6117848484846114ca565b611790848484846119a9565b6117cf576040517f08c379a00000000000000000000000000000000000000000000000000000000081526004016117c6906125bf565b60405180910390fd5b50505050565b606060405180602001604052806000815250905090565b60606117f7826112bf565b611836576040517f08c379a000000000000000000000000000000000000000000000000000000000815260040161182d9061275f565b60405180910390fd5b60006118406117d5565b90506000815111611860576040518060200160405280600081525061188b565b8061186a84611b40565b60405160200161187b9291906124ce565b6040516020818303038152906040525b915050919050565b505050565b60006118a3826109f8565b90506118b181600084611893565b6118bc600083611333565b6001600360008373ffffffffffffffffffffffffffffffffffffffff1673ffffffffffffffffffffffffffffffffffffffff168152602001908152602001600020600082825461190c9190612985565b925050819055506002600083815260200190815260200160002060006101000a81549073ffffffffffffffffffffffffffffffffffffffff021916905581600073ffffffffffffffffffffffffffffffffffffffff168273ffffffffffffffffffffffffffffffffffffffff167fddf252ad1be2c89b69c2b068fc378daa952ba7f163c4a11628f55a4df523b3ef60405160405180910390a45050565b60006119ca8473ffffffffffffffffffffffffffffffffffffffff16611ced565b15611b33578373ffffffffffffffffffffffffffffffffffffffff1663150b7a026119f361132b565b8786866040518563ffffffff1660e01b8152600401611a15949392919061250d565b602060405180830381600087803b158015611a2f57600080fd5b505af1925050508015611a6057506040513d601f19601f82011682018060405250810190611a5d91906120ec565b60015b611ae3573d8060008114611a90576040519150601f19603f3d011682016040523d82523d6000602084013e611a95565b606091505b50600081511415611adb576040517f08c379a0000000000000000000000000000000000000000000000000000000008152600401611ad2906125bf565b60405180910390fd5b805181602001fd5b63150b7a0260e01b7bffffffffffffffffffffffffffffffffffffffffffffffffffffffff1916817bffffffffffffffffffffffffffffffffffffffffffffffffffffffff191614915050611b38565b600190505b949350505050565b60606000821415611b88576040518060400160405280600181526020017f30000000000000000000000000000000000000000000000000000000000000008152509050611ce8565b600082905060005b60008214611bba578080611ba390612ad2565b915050600a82611bb391906128fa565b9150611b90565b60008167ffffffffffffffff811115611bfc577f4e487b7100000000000000000000000000000000000000000000000000000000600052604160045260246000fd5b6040519080825280601f01601f191660200182016040528015611c2e5781602001600182028036833780820191505090505b5090505b60008514611ce157600182611c479190612985565b9150600a85611c569190612b1b565b6030611c6291906128a4565b60f81b818381518110611c9e577f4e487b7100000000000000000000000000000000000000000000000000000000600052603260045260246000fd5b60200101907effffffffffffffffffffffffffffffffffffffffffffffffffffffffffffff1916908160001a905350600a85611cda91906128fa565b9450611c32565b8093505050505b919050565b600080823b905060008111915050919050565b828054611d0c90612a6f565b90600052602060002090601f016020900481019282611d2e5760008555611d75565b82601f10611d4757805160ff1916838001178555611d75565b82800160010185558215611d75579182015b82811115611d74578251825591602001919060010190611d59565b5b509050611d829190611dc6565b5090565b508054611d9290612a6f565b6000825580601f10611da45750611dc3565b601f016020900490600052602060002090810190611dc29190611dc6565b5b50565b5b80821115611ddf576000816000905550600101611dc7565b5090565b6000611df6611df1846127ff565b6127da565b905082815260208101848484011115611e0e57600080fd5b611e19848285612a2d565b509392505050565b6000611e34611e2f84612830565b6127da565b905082815260208101848484011115611e4c57600080fd5b611e57848285612a2d565b509392505050565b600081359050611e6e81613097565b92915050565b600081359050611e83816130ae565b92915050565b600081359050611e98816130c5565b92915050565b600081519050611ead816130c5565b92915050565b600082601f830112611ec457600080fd5b8135611ed4848260208601611de3565b91505092915050565b600082601f830112611eee57600080fd5b8135611efe848260208601611e21565b91505092915050565b600081359050611f16816130dc565b92915050565b600060208284031215611f2e57600080fd5b6000611f3c84828501611e5f565b91505092915050565b60008060408385031215611f5857600080fd5b6000611f6685828601611e5f565b9250506020611f7785828601611e5f565b9150509250929050565b600080600060608486031215611f9657600080fd5b6000611fa486828701611e5f565b9350506020611fb586828701611e5f565b9250506040611fc686828701611f07565b9150509250925092565b60008060008060808587031215611fe657600080fd5b6000611ff487828801611e5f565b945050602061200587828801611e5f565b935050604061201687828801611f07565b925050606085013567ffffffffffffffff81111561203357600080fd5b61203f87828801611eb3565b91505092959194509250565b6000806040838503121561205e57600080fd5b600061206c85828601611e5f565b925050602061207d85828601611e74565b9150509250929050565b6000806040838503121561209a57600080fd5b60006120a885828601611e5f565b92505060206120b985828601611f07565b9150509250929050565b6000602082840312156120d557600080fd5b60006120e384828501611e89565b91505092915050565b6000602082840312156120fe57600080fd5b600061210c84828501611e9e565b91505092915050565b6000806040838503121561212857600080fd5b600083013567ffffffffffffffff81111561214257600080fd5b61214e85828601611edd565b925050602061215f85828601611f07565b9150509250929050565b60006020828403121561217b57600080fd5b600061218984828501611f07565b91505092915050565b600080604083850312156121a557600080fd5b60006121b385828601611f07565b92505060206121c485828601611f07565b9150509250929050565b6121d7816129b9565b82525050565b6121e6816129cb565b82525050565b60006121f782612861565b6122018185612877565b9350612211818560208601612a3c565b61221a81612c08565b840191505092915050565b60006122308261286c565b61223a8185612888565b935061224a818560208601612a3c565b61225381612c08565b840191505092915050565b60006122698261286c565b6122738185612899565b9350612283818560208601612a3c565b80840191505092915050565b600061229c603283612888565b91506122a782612c19565b604082019050919050565b60006122bf601c83612888565b91506122ca82612c68565b602082019050919050565b60006122e2602483612888565b91506122ed82612c91565b604082019050919050565b6000612305601983612888565b915061231082612ce0565b602082019050919050565b6000612328602c83612888565b915061233382612d09565b604082019050919050565b600061234b603883612888565b915061235682612d58565b604082019050919050565b600061236e602a83612888565b915061237982612da7565b604082019050919050565b6000612391602983612888565b915061239c82612df6565b604082019050919050565b60006123b4602e83612888565b91506123bf82612e45565b604082019050919050565b60006123d7602083612888565b91506123e282612e94565b602082019050919050565b60006123fa603183612888565b915061240582612ebd565b604082019050919050565b600061241d602c83612888565b915061242882612f0c565b604082019050919050565b6000612440602983612888565b915061244b82612f5b565b604082019050919050565b6000612463602f83612888565b915061246e82612faa565b604082019050919050565b6000612486602183612888565b915061249182612ff9565b604082019050919050565b60006124a9603183612888565b91506124b482613048565b604082019050919050565b6124c881612a23565b82525050565b60006124da828561225e565b91506124e6828461225e565b91508190509392505050565b600060208201905061250760008301846121ce565b92915050565b600060808201905061252260008301876121ce565b61252f60208301866121ce565b61253c60408301856124bf565b818103606083015261254e81846121ec565b905095945050505050565b600060408201905061256e60008301856121ce565b61257b60208301846124bf565b9392505050565b600060208201905061259760008301846121dd565b92915050565b600060208201905081810360008301526125b78184612225565b905092915050565b600060208201905081810360008301526125d88161228f565b9050919050565b600060208201905081810360008301526125f8816122b2565b9050919050565b60006020820190508181036000830152612618816122d5565b9050919050565b60006020820190508181036000830152612638816122f8565b9050919050565b600060208201905081810360008301526126588161231b565b9050919050565b600060208201905081810360008301526126788161233e565b9050919050565b6000602082019050818103600083015261269881612361565b9050919050565b600060208201905081810360008301526126b881612384565b9050919050565b600060208201905081810360008301526126d8816123a7565b9050919050565b600060208201905081810360008301526126f8816123ca565b9050919050565b60006020820190508181036000830152612718816123ed565b9050919050565b6000602082019050818103600083015261273881612410565b9050919050565b6000602082019050818103600083015261275881612433565b9050919050565b6000602082019050818103600083015261277881612456565b9050919050565b6000602082019050818103600083015261279881612479565b9050919050565b600060208201905081810360008301526127b88161249c565b9050919050565b60006020820190506127d460008301846124bf565b92915050565b60006127e46127f5565b90506127f08282612aa1565b919050565b6000604051905090565b600067ffffffffffffffff82111561281a57612819612bd9565b5b61282382612c08565b9050602081019050919050565b600067ffffffffffffffff82111561284b5761284a612bd9565b5b61285482612c08565b9050602081019050919050565b600081519050919050565b600081519050919050565b600082825260208201905092915050565b600082825260208201905092915050565b600081905092915050565b60006128af82612a23565b91506128ba83612a23565b9250827fffffffffffffffffffffffffffffffffffffffffffffffffffffffffffffffff038211156128ef576128ee612b4c565b5b828201905092915050565b600061290582612a23565b915061291083612a23565b9250826129205761291f612b7b565b5b828204905092915050565b600061293682612a23565b915061294183612a23565b9250817fffffffffffffffffffffffffffffffffffffffffffffffffffffffffffffffff048311821515161561297a57612979612b4c565b5b828202905092915050565b600061299082612a23565b915061299b83612a23565b9250828210156129ae576129ad612b4c565b5b828203905092915050565b60006129c482612a03565b9050919050565b60008115159050919050565b60007fffffffff0000000000000000000000000000000000000000000000000000000082169050919050565b600073ffffffffffffffffffffffffffffffffffffffff82169050919050565b6000819050919050565b82818337600083830152505050565b60005b83811015612a5a578082015181840152602081019050612a3f565b83811115612a69576000848401525b50505050565b60006002820490506001821680612a8757607f821691505b60208210811415612a9b57612a9a612baa565b5b50919050565b612aaa82612c08565b810181811067ffffffffffffffff82111715612ac957612ac8612bd9565b5b80604052505050565b6000612add82612a23565b91507fffffffffffffffffffffffffffffffffffffffffffffffffffffffffffffffff821415612b1057612b0f612b4c565b5b600182019050919050565b6000612b2682612a23565b9150612b3183612a23565b925082612b4157612b40612b7b565b5b828206905092915050565b7f4e487b7100000000000000000000000000000000000000000000000000000000600052601160045260246000fd5b7f4e487b7100000000000000000000000000000000000000000000000000000000600052601260045260246000fd5b7f4e487b7100000000000000000000000000000000000000000000000000000000600052602260045260246000fd5b7f4e487b7100000000000000000000000000000000000000000000000000000000600052604160045260246000fd5b6000601f19601f8301169050919050565b7f4552433732313a207472616e7366657220746f206e6f6e20455243373231526560008201527f63656976657220696d706c656d656e7465720000000000000000000000000000602082015250565b7f4552433732313a20746f6b656e20616c7265616479206d696e74656400000000600082015250565b7f4552433732313a207472616e7366657220746f20746865207a65726f2061646460008201527f7265737300000000000000000000000000000000000000000000000000000000602082015250565b7f4552433732313a20617070726f766520746f2063616c6c657200000000000000600082015250565b7f4552433732313a206f70657261746f7220717565727920666f72206e6f6e657860008201527f697374656e7420746f6b656e0000000000000000000000000000000000000000602082015250565b7f4552433732313a20617070726f76652063616c6c6572206973206e6f74206f7760008201527f6e6572206e6f7220617070726f76656420666f7220616c6c0000000000000000602082015250565b7f4552433732313a2062616c616e636520717565727920666f7220746865207a6560008201527f726f206164647265737300000000000000000000000000000000000000000000602082015250565b7f4552433732313a206f776e657220717565727920666f72206e6f6e657869737460008201527f656e7420746f6b656e0000000000000000000000000000000000000000000000602082015250565b7f45524337323155524953746f726167653a2055524920736574206f66206e6f6e60008201527f6578697374656e7420746f6b656e000000000000000000000000000000000000602082015250565b7f4552433732313a206d696e7420746f20746865207a65726f2061646472657373600082015250565b7f45524337323155524953746f726167653a2055524920717565727920666f722060008201527f6e6f6e6578697374656e7420746f6b656e000000000000000000000000000000602082015250565b7f4552433732313a20617070726f76656420717565727920666f72206e6f6e657860008201527f697374656e7420746f6b656e0000000000000000000000000000000000000000602082015250565b7f4552433732313a207472616e73666572206f6620746f6b656e2074686174206960008201527f73206e6f74206f776e0000000000000000000000000000000000000000000000602082015250565b7f4552433732314d657461646174613a2055524920717565727920666f72206e6f60008201527f6e6578697374656e7420746f6b656e0000000000000000000000000000000000602082015250565b7f4552433732313a20617070726f76616c20746f2063757272656e74206f776e6560008201527f7200000000000000000000000000000000000000000000000000000000000000602082015250565b7f4552433732313a207472616e736665722063616c6c6572206973206e6f74206f60008201527f776e6572206e6f7220617070726f766564000000000000000000000000000000602082015250565b6130a0816129b9565b81146130ab57600080fd5b50565b6130b7816129cb565b81146130c257600080fd5b50565b6130ce816129d7565b81146130d957600080fd5b50565b6130e581612a23565b81146130f057600080fd5b5056fea2646970667358221220cce5606b94bee8c65d3642cb2223427828b852af8aeb5e88105295d2dd57ef8164736f6c63430008040033",
  "linkReferences": {},
  "deployedLinkReferences": {}
}