{
  "_format": "hh-sol-artifact-1",
  "contractName": "NFTMarket",
  "sourceName": "contracts/NFTMarket.sol",
  "abi": [
    {
      "inputs": [],
      "stateMutability": "nonpayable",
      "type": "constructor"
    },
    {
      "anonymous": false,
      "inputs": [
        {
          "indexed": true,
          "internalType": "uint256",
          "name": "listingId",
          "type": "uint256"
        },
        {
          "indexed": false,
          "internalType": "address",
          "name": "nft",
          "type": "address"
        },
        {
          "indexed": false,
          "internalType": "uint256",
          "name": "tokenId",
          "type": "uint256"
        }
      ],
      "name": "SaleCancelled",
      "type": "event"
    },
    {
      "anonymous": false,
      "inputs": [
        {
          "indexed": true,
          "internalType": "uint256",
          "name": "listingId",
          "type": "uint256"
        },
        {
          "indexed": false,
          "internalType": "address",
          "name": "nft",
          "type": "address"
        },
        {
          "indexed": false,
          "internalType": "uint256",
          "name": "tokenId",
          "type": "uint256"
        },
        {
          "indexed": true,
          "internalType": "address payable",
          "name": "seller",
          "type": "address"
        },
        {
          "indexed": false,
          "internalType": "uint256",
          "name": "price",
          "type": "uint256"
        }
      ],
      "name": "TokenListed",
      "type": "event"
    },
    {
      "anonymous": false,
      "inputs": [
        {
          "indexed": true,
          "internalType": "uint256",
          "name": "listingId",
          "type": "uint256"
        },
        {
          "indexed": false,
          "internalType": "address",
          "name": "nft",
          "type": "address"
        },
        {
          "indexed": false,
          "internalType": "uint256",
          "name": "tokenId",
          "type": "uint256"
        },
        {
          "indexed": false,
          "internalType": "address payable",
          "name": "owner",
          "type": "address"
        },
        {
          "indexed": true,
          "internalType": "address payable",
          "name": "seller",
          "type": "address"
        },
        {
          "indexed": false,
          "internalType": "uint256",
          "name": "price",
          "type": "uint256"
        }
      ],
      "name": "TokenSold",
      "type": "event"
    },
    {
      "inputs": [
        {
          "internalType": "address",
          "name": "nftContract",
          "type": "address"
        },
        {
          "internalType": "uint256",
          "name": "listingId",
          "type": "uint256"
        }
      ],
      "name": "buyToken",
      "outputs": [],
      "stateMutability": "payable",
      "type": "function"
    },
    {
      "inputs": [],
      "name": "buyingPoints",
      "outputs": [
        {
          "internalType": "uint256",
          "name": "",
          "type": "uint256"
        }
      ],
      "stateMutability": "view",
      "type": "function"
    },
    {
      "inputs": [
        {
          "internalType": "address",
          "name": "nftContract",
          "type": "address"
        },
        {
          "internalType": "uint256",
          "name": "listingId",
          "type": "uint256"
        }
      ],
      "name": "cancelSale",
      "outputs": [],
      "stateMutability": "nonpayable",
      "type": "function"
    },
    {
      "inputs": [
        {
          "internalType": "uint256",
          "name": "listingId",
          "type": "uint256"
        }
      ],
      "name": "getListingById",
      "outputs": [
        {
          "components": [
            {
              "internalType": "uint256",
              "name": "listingId",
              "type": "uint256"
            },
            {
              "internalType": "address",
              "name": "nft",
              "type": "address"
            },
            {
              "internalType": "uint256",
              "name": "tokenId",
              "type": "uint256"
            },
            {
              "internalType": "address payable",
              "name": "owner",
              "type": "address"
            },
            {
              "internalType": "address payable",
              "name": "seller",
              "type": "address"
            },
            {
              "internalType": "uint256",
              "name": "price",
              "type": "uint256"
            },
            {
              "internalType": "bool",
              "name": "sold",
              "type": "bool"
            },
            {
              "internalType": "bool",
              "name": "onSale",
              "type": "bool"
            }
          ],
          "internalType": "struct NFTMarket.Listing",
          "name": "",
          "type": "tuple"
        }
      ],
      "stateMutability": "view",
      "type": "function"
    },
    {
      "inputs": [
        {
          "internalType": "address",
          "name": "nftContract",
          "type": "address"
        },
        {
          "internalType": "uint256",
          "name": "tokenId",
          "type": "uint256"
        },
        {
          "internalType": "uint256",
          "name": "price",
          "type": "uint256"
        }
      ],
      "name": "listToken",
      "outputs": [],
      "stateMutability": "nonpayable",
      "type": "function"
    },
    {
      "inputs": [],
      "name": "listingFee",
      "outputs": [
        {
          "internalType": "uint256",
          "name": "",
          "type": "uint256"
        }
      ],
      "stateMutability": "view",
      "type": "function"
    },
    {
      "inputs": [],
      "name": "owner",
      "outputs": [
        {
          "internalType": "address payable",
          "name": "",
          "type": "address"
        }
      ],
      "stateMutability": "view",
      "type": "function"
    },
    {
      "inputs": [
        {
          "internalType": "uint256",
          "name": "",
          "type": "uint256"
        }
      ],
      "name": "saleListings",
      "outputs": [
        {
          "internalType": "uint256",
          "name": "listingId",
          "type": "uint256"
        },
        {
          "internalType": "address",
          "name": "nft",
          "type": "address"
        },
        {
          "internalType": "uint256",
          "name": "tokenId",
          "type": "uint256"
        },
        {
          "internalType": "address payable",
          "name": "owner",
          "type": "address"
        },
        {
          "internalType": "address payable",
          "name": "seller",
          "type": "address"
        },
        {
          "internalType": "uint256",
          "name": "price",
          "type": "uint256"
        },
        {
          "internalType": "bool",
          "name": "sold",
          "type": "bool"
        },
        {
          "internalType": "bool",
          "name": "onSale",
          "type": "bool"
        }
      ],
      "stateMutability": "view",
      "type": "function"
    },
    {
      "inputs": [],
      "name": "score",
      "outputs": [
        {
          "internalType": "address payable",
          "name": "",
          "type": "address"
        }
      ],
      "stateMutability": "view",
      "type": "function"
    },
    {
      "inputs": [
        {
          "internalType": "address",
          "name": "scoreAddress",
          "type": "address"
        }
      ],
      "name": "setScoreContract",
      "outputs": [],
      "stateMutability": "nonpayable",
      "type": "function"
    }
  ],
  "bytecode": "0x60806040526064600355601e60045534801561001a57600080fd5b50600160008190555033600160006101000a81548173ffffffffffffffffffffffffffffffffffffffff021916908373ffffffffffffffffffffffffffffffffffffffff160217905550611f87806100736000396000f3fe6080604052600436106100915760003560e01c80636d2b9f50116100595780636d2b9f501461016e5780637e07590d1461019757806387c44924146101c05780638da5cb5b14610204578063efedc6691461022f57610091565b806316f3a95b1461009657806338c66607146100bf5780634f85310f146100ea57806368f8fc10146101275780636a1b7ecc14610143575b600080fd5b3480156100a257600080fd5b506100bd60048036038101906100b891906116b1565b61025a565b005b3480156100cb57600080fd5b506100d461052a565b6040516100e19190611bc4565b60405180910390f35b3480156100f657600080fd5b50610111600480360381019061010c9190611778565b610530565b60405161011e9190611ba8565b60405180910390f35b610141600480360381019061013c91906116b1565b6106b4565b005b34801561014f57600080fd5b50610158610ebb565b6040516101659190611bc4565b60405180910390f35b34801561017a57600080fd5b506101956004803603810190610190919061165f565b610ec1565b005b3480156101a357600080fd5b506101be60048036038101906101b99190611729565b610fb9565b005b3480156101cc57600080fd5b506101e760048036038101906101e29190611778565b61144e565b6040516101fb989796959493929190611bdf565b60405180910390f35b34801561021057600080fd5b50610219611510565b6040516102269190611988565b60405180910390f35b34801561023b57600080fd5b50610244611536565b6040516102519190611988565b60405180910390f35b600260005414156102a0576040517f08c379a000000000000000000000000000000000000000000000000000000000815260040161029790611b88565b60405180910390fd5b600260008190555080600115156006600083815260200190815260200160002060060160019054906101000a900460ff16151514610313576040517f08c379a000000000000000000000000000000000000000000000000000000000815260040161030a90611b08565b60405180910390fd5b6006600083815260200190815260200160002060040160009054906101000a900473ffffffffffffffffffffffffffffffffffffffff1673ffffffffffffffffffffffffffffffffffffffff163373ffffffffffffffffffffffffffffffffffffffff16146103b7576040517f08c379a00000000000000000000000000000000000000000000000000000000081526004016103ae90611b28565b60405180910390fd5b60006006600084815260200190815260200160002060060160016101000a81548160ff02191690831515021790555060006006600084815260200190815260200160002060040160009054906101000a900473ffffffffffffffffffffffffffffffffffffffff1690506000600660008581526020019081526020016000206002015490508473ffffffffffffffffffffffffffffffffffffffff166323b872dd3084846040518463ffffffff1660e01b8152600401610479939291906119cc565b600060405180830381600087803b15801561049357600080fd5b505af11580156104a7573d6000803e3d6000fd5b50505050837f855a9fce4c4fa99e21aa667d9fb05057b34881288a94d43172cc9f0abd46272c6006600087815260200190815260200160002060010160009054906101000a900473ffffffffffffffffffffffffffffffffffffffff1683604051610513929190611a63565b60405180910390a250505060016000819055505050565b60035481565b610538611580565b6006600083815260200190815260200160002060405180610100016040529081600082015481526020016001820160009054906101000a900473ffffffffffffffffffffffffffffffffffffffff1673ffffffffffffffffffffffffffffffffffffffff1673ffffffffffffffffffffffffffffffffffffffff168152602001600282015481526020016003820160009054906101000a900473ffffffffffffffffffffffffffffffffffffffff1673ffffffffffffffffffffffffffffffffffffffff1673ffffffffffffffffffffffffffffffffffffffff1681526020016004820160009054906101000a900473ffffffffffffffffffffffffffffffffffffffff1673ffffffffffffffffffffffffffffffffffffffff1673ffffffffffffffffffffffffffffffffffffffff168152602001600582015481526020016006820160009054906101000a900460ff161515151581526020016006820160019054906101000a900460ff1615151515815250509050919050565b600260005414156106fa576040517f08c379a00000000000000000000000000000000000000000000000000000000081526004016106f190611b88565b60405180910390fd5b600260008190555080600115156006600083815260200190815260200160002060060160019054906101000a900460ff1615151461076d576040517f08c379a000000000000000000000000000000000000000000000000000000000815260040161076490611b08565b60405180910390fd5b6000600660008481526020019081526020016000206005015490506000600660008581526020019081526020016000206002015490508134146107e5576040517f08c379a00000000000000000000000000000000000000000000000000000000081526004016107dc90611b48565b60405180910390fd5b8473ffffffffffffffffffffffffffffffffffffffff166323b872dd3033846040518463ffffffff1660e01b815260040161082293929190611a03565b600060405180830381600087803b15801561083c57600080fd5b505af1158015610850573d6000803e3d6000fd5b50505050336006600086815260200190815260200160002060030160006101000a81548173ffffffffffffffffffffffffffffffffffffffff021916908373ffffffffffffffffffffffffffffffffffffffff16021790555060016006600086815260200190815260200160002060060160006101000a81548160ff02191690831515021790555060006006600086815260200190815260200160002060060160016101000a81548160ff02191690831515021790555060006103e86004548461091a9190611cc8565b6109249190611c97565b90506000808773ffffffffffffffffffffffffffffffffffffffff16632a55205a85876040518363ffffffff1660e01b8152600401610964929190611c5d565b604080518083038186803b15801561097b57600080fd5b505afa15801561098f573d6000803e3d6000fd5b505050506040513d601f19601f820116820180604052508101906109b391906116ed565b91509150600073ffffffffffffffffffffffffffffffffffffffff168273ffffffffffffffffffffffffffffffffffffffff161415610a79576006600088815260200190815260200160002060040160009054906101000a900473ffffffffffffffffffffffffffffffffffffffff1673ffffffffffffffffffffffffffffffffffffffff166108fc8434610a489190611d22565b9081150290604051600060405180830381858888f19350505050158015610a73573d6000803e3d6000fd5b50610b54565b8173ffffffffffffffffffffffffffffffffffffffff166108fc829081150290604051600060405180830381858888f19350505050158015610abf573d6000803e3d6000fd5b506006600088815260200190815260200160002060040160009054906101000a900473ffffffffffffffffffffffffffffffffffffffff1673ffffffffffffffffffffffffffffffffffffffff166108fc828534610b1d9190611d22565b610b279190611d22565b9081150290604051600060405180830381858888f19350505050158015610b52573d6000803e3d6000fd5b505b600160009054906101000a900473ffffffffffffffffffffffffffffffffffffffff1673ffffffffffffffffffffffffffffffffffffffff166108fc600285610b9d9190611c97565b9081150290604051600060405180830381858888f19350505050158015610bc8573d6000803e3d6000fd5b50600260009054906101000a900473ffffffffffffffffffffffffffffffffffffffff1673ffffffffffffffffffffffffffffffffffffffff166108fc600285610c129190611c97565b9081150290604051600060405180830381858888f19350505050158015610c3d573d6000803e3d6000fd5b50600260009054906101000a900473ffffffffffffffffffffffffffffffffffffffff1673ffffffffffffffffffffffffffffffffffffffff166365d97724336103e860035489610c8e9190611cc8565b610c989190611c97565b6040518363ffffffff1660e01b8152600401610cb5929190611a63565b600060405180830381600087803b158015610ccf57600080fd5b505af1158015610ce3573d6000803e3d6000fd5b50505050600260009054906101000a900473ffffffffffffffffffffffffffffffffffffffff1673ffffffffffffffffffffffffffffffffffffffff166365d97724600660008a815260200190815260200160002060040160009054906101000a900473ffffffffffffffffffffffffffffffffffffffff166103e860035489610d6d9190611cc8565b610d779190611c97565b6040518363ffffffff1660e01b8152600401610d949291906119a3565b600060405180830381600087803b158015610dae57600080fd5b505af1158015610dc2573d6000803e3d6000fd5b505050506006600088815260200190815260200160002060040160009054906101000a900473ffffffffffffffffffffffffffffffffffffffff1673ffffffffffffffffffffffffffffffffffffffff16877f33cbf25eeb380e03a3122bdd051f976a5beb3b5ba6c81f10f2ee5e7dfc8a4366600660008b815260200190815260200160002060010160009054906101000a900473ffffffffffffffffffffffffffffffffffffffff1687600160009054906101000a900473ffffffffffffffffffffffffffffffffffffffff168a604051610ea19493929190611a8c565b60405180910390a350505050505060016000819055505050565b60045481565b600160009054906101000a900473ffffffffffffffffffffffffffffffffffffffff1673ffffffffffffffffffffffffffffffffffffffff163373ffffffffffffffffffffffffffffffffffffffff1614610f1b57600080fd5b600160009054906101000a900473ffffffffffffffffffffffffffffffffffffffff1673ffffffffffffffffffffffffffffffffffffffff163373ffffffffffffffffffffffffffffffffffffffff1614610f7557600080fd5b80600260006101000a81548173ffffffffffffffffffffffffffffffffffffffff021916908373ffffffffffffffffffffffffffffffffffffffff16021790555050565b60026000541415610fff576040517f08c379a0000000000000000000000000000000000000000000000000000000008152600401610ff690611b88565b60405180910390fd5b60026000819055503373ffffffffffffffffffffffffffffffffffffffff168373ffffffffffffffffffffffffffffffffffffffff16636352211e846040518263ffffffff1660e01b81526004016110579190611bc4565b60206040518083038186803b15801561106f57600080fd5b505afa158015611083573d6000803e3d6000fd5b505050506040513d601f19601f820116820180604052508101906110a79190611688565b73ffffffffffffffffffffffffffffffffffffffff16146110fd576040517f08c379a00000000000000000000000000000000000000000000000000000000081526004016110f490611b68565b60405180910390fd5b611107600561155c565b60006111136005611572565b905060003390506040518061010001604052808381526020018673ffffffffffffffffffffffffffffffffffffffff168152602001858152602001600073ffffffffffffffffffffffffffffffffffffffff1681526020018273ffffffffffffffffffffffffffffffffffffffff16815260200184815260200160001515815260200160011515815250600660008481526020019081526020016000206000820151816000015560208201518160010160006101000a81548173ffffffffffffffffffffffffffffffffffffffff021916908373ffffffffffffffffffffffffffffffffffffffff1602179055506040820151816002015560608201518160030160006101000a81548173ffffffffffffffffffffffffffffffffffffffff021916908373ffffffffffffffffffffffffffffffffffffffff16021790555060808201518160040160006101000a81548173ffffffffffffffffffffffffffffffffffffffff021916908373ffffffffffffffffffffffffffffffffffffffff16021790555060a0820151816005015560c08201518160060160006101000a81548160ff02191690831515021790555060e08201518160060160016101000a81548160ff0219169083151502179055509050508473ffffffffffffffffffffffffffffffffffffffff166323b872dd3330876040518463ffffffff1660e01b815260040161132393929190611a03565b600060405180830381600087803b15801561133d57600080fd5b505af1158015611351573d6000803e3d6000fd5b50505050600260009054906101000a900473ffffffffffffffffffffffffffffffffffffffff1673ffffffffffffffffffffffffffffffffffffffff166365d9772433670de0b6b3a76400006040518363ffffffff1660e01b81526004016113ba929190611a3a565b600060405180830381600087803b1580156113d457600080fd5b505af11580156113e8573d6000803e3d6000fd5b505050508073ffffffffffffffffffffffffffffffffffffffff16827f3e56db1ea6c893099b769518f50273b5e3d001e5d1393079c766ef7f78c89a7f87878760405161143793929190611ad1565b60405180910390a350506001600081905550505050565b60066020528060005260406000206000915090508060000154908060010160009054906101000a900473ffffffffffffffffffffffffffffffffffffffff16908060020154908060030160009054906101000a900473ffffffffffffffffffffffffffffffffffffffff16908060040160009054906101000a900473ffffffffffffffffffffffffffffffffffffffff16908060050154908060060160009054906101000a900460ff16908060060160019054906101000a900460ff16905088565b600160009054906101000a900473ffffffffffffffffffffffffffffffffffffffff1681565b600260009054906101000a900473ffffffffffffffffffffffffffffffffffffffff1681565b6001816000016000828254019250508190555050565b600081600001549050919050565b60405180610100016040528060008152602001600073ffffffffffffffffffffffffffffffffffffffff16815260200160008152602001600073ffffffffffffffffffffffffffffffffffffffff168152602001600073ffffffffffffffffffffffffffffffffffffffff168152602001600081526020016000151581526020016000151581525090565b60008135905061161a81611f23565b92915050565b60008151905061162f81611f23565b92915050565b60008135905061164481611f3a565b92915050565b60008151905061165981611f3a565b92915050565b60006020828403121561167157600080fd5b600061167f8482850161160b565b91505092915050565b60006020828403121561169a57600080fd5b60006116a884828501611620565b91505092915050565b600080604083850312156116c457600080fd5b60006116d28582860161160b565b92505060206116e385828601611635565b9150509250929050565b6000806040838503121561170057600080fd5b600061170e85828601611620565b925050602061171f8582860161164a565b9150509250929050565b60008060006060848603121561173e57600080fd5b600061174c8682870161160b565b935050602061175d86828701611635565b925050604061176e86828701611635565b9150509250925092565b60006020828403121561178a57600080fd5b600061179884828501611635565b91505092915050565b6117aa81611db0565b82525050565b6117b981611d68565b82525050565b6117c881611d68565b82525050565b6117d781611d56565b82525050565b6117e681611d56565b82525050565b6117f581611d7a565b82525050565b61180481611d7a565b82525050565b61181381611dc2565b82525050565b6000611826600b83611c86565b915061183182611e56565b602082019050919050565b6000611849600a83611c86565b915061185482611e7f565b602082019050919050565b600061186c600f83611c86565b915061187782611ea8565b602082019050919050565b600061188f600983611c86565b915061189a82611ed1565b602082019050919050565b60006118b2601f83611c86565b91506118bd82611efa565b602082019050919050565b610100820160008201516118df600085018261196a565b5060208201516118f260208501826117ce565b506040820151611905604085018261196a565b50606082015161191860608501826117b0565b50608082015161192b60808501826117b0565b5060a082015161193e60a085018261196a565b5060c082015161195160c08501826117ec565b5060e082015161196460e08501826117ec565b50505050565b61197381611da6565b82525050565b61198281611da6565b82525050565b600060208201905061199d60008301846117bf565b92915050565b60006040820190506119b860008301856117a1565b6119c56020830184611979565b9392505050565b60006060820190506119e160008301866117dd565b6119ee60208301856117a1565b6119fb6040830184611979565b949350505050565b6000606082019050611a1860008301866117dd565b611a2560208301856117dd565b611a326040830184611979565b949350505050565b6000604082019050611a4f60008301856117dd565b611a5c602083018461180a565b9392505050565b6000604082019050611a7860008301856117dd565b611a856020830184611979565b9392505050565b6000608082019050611aa160008301876117dd565b611aae6020830186611979565b611abb60408301856117bf565b611ac86060830184611979565b95945050505050565b6000606082019050611ae660008301866117dd565b611af36020830185611979565b611b006040830184611979565b949350505050565b60006020820190508181036000830152611b2181611819565b9050919050565b60006020820190508181036000830152611b418161183c565b9050919050565b60006020820190508181036000830152611b618161185f565b9050919050565b60006020820190508181036000830152611b8181611882565b9050919050565b60006020820190508181036000830152611ba1816118a5565b9050919050565b600061010082019050611bbe60008301846118c8565b92915050565b6000602082019050611bd96000830184611979565b92915050565b600061010082019050611bf5600083018b611979565b611c02602083018a6117dd565b611c0f6040830189611979565b611c1c60608301886117bf565b611c2960808301876117bf565b611c3660a0830186611979565b611c4360c08301856117fb565b611c5060e08301846117fb565b9998505050505050505050565b6000604082019050611c726000830185611979565b611c7f6020830184611979565b9392505050565b600082825260208201905092915050565b6000611ca282611da6565b9150611cad83611da6565b925082611cbd57611cbc611e27565b5b828204905092915050565b6000611cd382611da6565b9150611cde83611da6565b9250817fffffffffffffffffffffffffffffffffffffffffffffffffffffffffffffffff0483118215151615611d1757611d16611df8565b5b828202905092915050565b6000611d2d82611da6565b9150611d3883611da6565b925082821015611d4b57611d4a611df8565b5b828203905092915050565b6000611d6182611d86565b9050919050565b6000611d7382611d86565b9050919050565b60008115159050919050565b600073ffffffffffffffffffffffffffffffffffffffff82169050919050565b6000819050919050565b6000611dbb82611dd4565b9050919050565b6000611dcd82611da6565b9050919050565b6000611ddf82611de6565b9050919050565b6000611df182611d86565b9050919050565b7f4e487b7100000000000000000000000000000000000000000000000000000000600052601160045260246000fd5b7f4e487b7100000000000000000000000000000000000000000000000000000000600052601260045260246000fd5b7f4e4f545f4f4e5f53414c45000000000000000000000000000000000000000000600082015250565b7f4e4f545f53454c4c455200000000000000000000000000000000000000000000600082015250565b7f56414c55455f4e45515f50524943450000000000000000000000000000000000600082015250565b7f4e4f545f4f574e45520000000000000000000000000000000000000000000000600082015250565b7f5265656e7472616e637947756172643a207265656e7472616e742063616c6c00600082015250565b611f2c81611d56565b8114611f3757600080fd5b50565b611f4381611da6565b8114611f4e57600080fd5b5056fea2646970667358221220d5bee5c7d64319dedb72b3a696e95145b9d4e89fa6d8180276992b3a69ff380f64736f6c63430008040033",
  "linkReferences": {},
  "deployedLinkReferences": {}
}