{
  "_format": "hh-sol-artifact-1",
  "contractName": "Score",
  "sourceName": "contracts/Score.sol",
  "abi": [
    {
      "inputs": [
        {
          "internalType": "address",
          "name": "marketAddress",
          "type": "address"
        }
      ],
      "stateMutability": "nonpayable",
      "type": "constructor"
    },
    {
      "anonymous": false,
      "inputs": [
        {
          "indexed": true,
          "internalType": "address",
          "name": "user",
          "type": "address"
        },
        {
          "indexed": false,
          "internalType": "uint256",
          "name": "amount",
          "type": "uint256"
        }
      ],
      "name": "RewardClaimed",
      "type": "event"
    },
    {
      "anonymous": false,
      "inputs": [
        {
          "indexed": false,
          "internalType": "uint256",
          "name": "updatedAt",
          "type": "uint256"
        },
        {
          "indexed": false,
          "internalType": "uint256",
          "name": "balance",
          "type": "uint256"
        }
      ],
      "name": "RewardsUpdated",
      "type": "event"
    },
    {
      "anonymous": false,
      "inputs": [
        {
          "indexed": true,
          "internalType": "address",
          "name": "user",
          "type": "address"
        },
        {
          "indexed": false,
          "internalType": "uint256",
          "name": "current",
          "type": "uint256"
        }
      ],
      "name": "ScoreUpdated",
      "type": "event"
    },
    {
      "inputs": [],
      "name": "claim",
      "outputs": [],
      "stateMutability": "nonpayable",
      "type": "function"
    },
    {
      "inputs": [
        {
          "internalType": "address",
          "name": "user",
          "type": "address"
        }
      ],
      "name": "getPendingRewardByAddress",
      "outputs": [
        {
          "internalType": "uint256",
          "name": "",
          "type": "uint256"
        }
      ],
      "stateMutability": "view",
      "type": "function"
    },
    {
      "inputs": [
        {
          "internalType": "address",
          "name": "user",
          "type": "address"
        }
      ],
      "name": "getScoreByAddress",
      "outputs": [
        {
          "internalType": "uint256",
          "name": "",
          "type": "uint256"
        }
      ],
      "stateMutability": "view",
      "type": "function"
    },
    {
      "inputs": [],
      "name": "lastUpdated",
      "outputs": [
        {
          "internalType": "uint256",
          "name": "",
          "type": "uint256"
        }
      ],
      "stateMutability": "view",
      "type": "function"
    },
    {
      "inputs": [],
      "name": "market",
      "outputs": [
        {
          "internalType": "address",
          "name": "",
          "type": "address"
        }
      ],
      "stateMutability": "view",
      "type": "function"
    },
    {
      "inputs": [
        {
          "internalType": "address",
          "name": "",
          "type": "address"
        }
      ],
      "name": "scores",
      "outputs": [
        {
          "internalType": "uint256",
          "name": "score",
          "type": "uint256"
        },
        {
          "internalType": "uint256",
          "name": "pendingReward",
          "type": "uint256"
        }
      ],
      "stateMutability": "view",
      "type": "function"
    },
    {
      "inputs": [],
      "name": "totalScore",
      "outputs": [
        {
          "internalType": "uint256",
          "name": "",
          "type": "uint256"
        }
      ],
      "stateMutability": "view",
      "type": "function"
    },
    {
      "inputs": [],
      "name": "unitsCounted",
      "outputs": [
        {
          "internalType": "uint256",
          "name": "",
          "type": "uint256"
        }
      ],
      "stateMutability": "view",
      "type": "function"
    },
    {
      "inputs": [],
      "name": "updateRewards",
      "outputs": [],
      "stateMutability": "nonpayable",
      "type": "function"
    },
    {
      "inputs": [
        {
          "internalType": "address",
          "name": "user",
          "type": "address"
        },
        {
          "internalType": "uint256",
          "name": "changeBy",
          "type": "uint256"
        }
      ],
      "name": "updateScore",
      "outputs": [],
      "stateMutability": "nonpayable",
      "type": "function"
    },
    {
      "stateMutability": "payable",
      "type": "receive"
    }
  ],
  "bytecode": "0x608060405260006002556000600355600060045534801561001f57600080fd5b50604051610e2a380380610e2a833981810160405281019061004191906100a3565b806000806101000a81548173ffffffffffffffffffffffffffffffffffffffff021916908373ffffffffffffffffffffffffffffffffffffffff1602179055504260028190555050610115565b60008151905061009d816100fe565b92915050565b6000602082840312156100b557600080fd5b60006100c38482850161008e565b91505092915050565b60006100d7826100de565b9050919050565b600073ffffffffffffffffffffffffffffffffffffffff82169050919050565b610107816100cc565b811461011257600080fd5b50565b610d06806101246000396000f3fe6080604052600436106100955760003560e01c806376dd110f1161005957806376dd110f1461016057806380f556051461019e5780638d70d8dc146101c9578063c006719f14610206578063d0b06f5d146102315761009c565b80633e158b0c146100a157806345422796146100b85780634c58e077146100e35780634e71d92d1461012057806365d97724146101375761009c565b3661009c57005b600080fd5b3480156100ad57600080fd5b506100b661025c565b005b3480156100c457600080fd5b506100cd610430565b6040516100da9190610a2c565b60405180910390f35b3480156100ef57600080fd5b5061010a6004803603810190610105919061094b565b610436565b6040516101179190610a2c565b60405180910390f35b34801561012c57600080fd5b50610135610482565b005b34801561014357600080fd5b5061015e60048036038101906101599190610974565b610580565b005b34801561016c57600080fd5b506101876004803603810190610182919061094b565b61085d565b604051610195929190610a47565b60405180910390f35b3480156101aa57600080fd5b506101b3610881565b6040516101c091906109f1565b60405180910390f35b3480156101d557600080fd5b506101f060048036038101906101eb919061094b565b6108a5565b6040516101fd9190610a2c565b60405180910390f35b34801561021257600080fd5b5061021b6108f1565b6040516102289190610a2c565b60405180910390f35b34801561023d57600080fd5b506102466108f7565b6040516102539190610a2c565b60405180910390f35b60006003544761026c9190610b62565b9050600081116102b1576040517f08c379a00000000000000000000000000000000000000000000000000000000081526004016102a890610a0c565b60405180910390fd5b60005b6102be60056108fd565b8110156103cf5760006001600060068481548110610305577f4e487b7100000000000000000000000000000000000000000000000000000000600052603260045260246000fd5b9060005260206000200160009054906101000a900473ffffffffffffffffffffffffffffffffffffffff1673ffffffffffffffffffffffffffffffffffffffff1673ffffffffffffffffffffffffffffffffffffffff16815260200190815260200160002090506000816000015411156103bb5760045481600001548461038c9190610b08565b6103969190610ad7565b8160010160008282546103a99190610a81565b92505081905550600081600001819055505b5080806103c790610bd2565b9150506102b4565b5080600360008282546103e29190610a81565b92505081905550426002819055507fcd7c861d63893659123f817b192b8621ff1923a7c4589c260173cedcf9e986a6600254600354604051610425929190610a47565b60405180910390a150565b60035481565b6000600160008373ffffffffffffffffffffffffffffffffffffffff1673ffffffffffffffffffffffffffffffffffffffff168152602001908152602001600020600001549050919050565b6000600160003373ffffffffffffffffffffffffffffffffffffffff1673ffffffffffffffffffffffffffffffffffffffff168152602001908152602001600020905060008160010154116104d657600080fd5b3373ffffffffffffffffffffffffffffffffffffffff166108fc82600101549081150290604051600060405180830381858888f19350505050158015610520573d6000803e3d6000fd5b50600081600101819055503373ffffffffffffffffffffffffffffffffffffffff167f106f923f993c2149d49b4255ff723acafa1f2d94393f561d3eda32ae348f724182600101546040516105759190610a2c565b60405180910390a250565b60008054906101000a900473ffffffffffffffffffffffffffffffffffffffff1673ffffffffffffffffffffffffffffffffffffffff163373ffffffffffffffffffffffffffffffffffffffff16146105d857600080fd5b6000806105e560056108fd565b905060005b818110156106a6578473ffffffffffffffffffffffffffffffffffffffff1660068281548110610643577f4e487b7100000000000000000000000000000000000000000000000000000000600052603260045260246000fd5b9060005260206000200160009054906101000a900473ffffffffffffffffffffffffffffffffffffffff1673ffffffffffffffffffffffffffffffffffffffff16141561069357600192506106a6565b808061069e90610bd2565b9150506105ea565b508161071a576006849080600181540180825580915050600190039060005260206000200160009091909190916101000a81548173ffffffffffffffffffffffffffffffffffffffff021916908373ffffffffffffffffffffffffffffffffffffffff160217905550610719600561090b565b5b82600160008673ffffffffffffffffffffffffffffffffffffffff1673ffffffffffffffffffffffffffffffffffffffff168152602001908152602001600020600001546107689190610a81565b600160008673ffffffffffffffffffffffffffffffffffffffff1673ffffffffffffffffffffffffffffffffffffffff1681526020019081526020016000206000018190555082600460008282546107c09190610a81565b925050819055508373ffffffffffffffffffffffffffffffffffffffff167f66ead48cfe0e1d1aa8bad492e906c348dfcfeecbf3b7b2cdf9b1f3cfa42a2945600160008773ffffffffffffffffffffffffffffffffffffffff1673ffffffffffffffffffffffffffffffffffffffff1681526020019081526020016000206000015460405161084f9190610a2c565b60405180910390a250505050565b60016020528060005260406000206000915090508060000154908060010154905082565b60008054906101000a900473ffffffffffffffffffffffffffffffffffffffff1681565b6000600160008373ffffffffffffffffffffffffffffffffffffffff1673ffffffffffffffffffffffffffffffffffffffff168152602001908152602001600020600101549050919050565b60045481565b60025481565b600081600001549050919050565b6001816000016000828254019250508190555050565b60008135905061093081610ca2565b92915050565b60008135905061094581610cb9565b92915050565b60006020828403121561095d57600080fd5b600061096b84828501610921565b91505092915050565b6000806040838503121561098757600080fd5b600061099585828601610921565b92505060206109a685828601610936565b9150509250929050565b6109b981610b96565b82525050565b60006109cc601a83610a70565b91506109d782610c79565b602082019050919050565b6109eb81610bc8565b82525050565b6000602082019050610a0660008301846109b0565b92915050565b60006020820190508181036000830152610a25816109bf565b9050919050565b6000602082019050610a4160008301846109e2565b92915050565b6000604082019050610a5c60008301856109e2565b610a6960208301846109e2565b9392505050565b600082825260208201905092915050565b6000610a8c82610bc8565b9150610a9783610bc8565b9250827fffffffffffffffffffffffffffffffffffffffffffffffffffffffffffffffff03821115610acc57610acb610c1b565b5b828201905092915050565b6000610ae282610bc8565b9150610aed83610bc8565b925082610afd57610afc610c4a565b5b828204905092915050565b6000610b1382610bc8565b9150610b1e83610bc8565b9250817fffffffffffffffffffffffffffffffffffffffffffffffffffffffffffffffff0483118215151615610b5757610b56610c1b565b5b828202905092915050565b6000610b6d82610bc8565b9150610b7883610bc8565b925082821015610b8b57610b8a610c1b565b5b828203905092915050565b6000610ba182610ba8565b9050919050565b600073ffffffffffffffffffffffffffffffffffffffff82169050919050565b6000819050919050565b6000610bdd82610bc8565b91507fffffffffffffffffffffffffffffffffffffffffffffffffffffffffffffffff821415610c1057610c0f610c1b565b5b600182019050919050565b7f4e487b7100000000000000000000000000000000000000000000000000000000600052601160045260246000fd5b7f4e487b7100000000000000000000000000000000000000000000000000000000600052601260045260246000fd5b7f5265776172647320746f20646973747269627574652069732030000000000000600082015250565b610cab81610b96565b8114610cb657600080fd5b50565b610cc281610bc8565b8114610ccd57600080fd5b5056fea2646970667358221220b6f20b504ccda62ca211db7e88326177869f83e0dd915d151e41d012dc3b59d164736f6c63430008040033",
  "linkReferences": {},
  "deployedLinkReferences": {}
}